{
  "_format": "hh-sol-artifact-1",
  "contractName": "Sakshat",
  "sourceName": "contracts/Sakshat.sol",
  "abi": [
    {
      "inputs": [
        {
          "internalType": "string",
          "name": "_promptDesc",
          "type": "string"
        },
        {
          "internalType": "string",
          "name": "name_",
          "type": "string"
        },
        {
          "internalType": "string",
          "name": "symbol_",
          "type": "string"
        }
      ],
      "stateMutability": "nonpayable",
      "type": "constructor"
    },
    {
      "anonymous": false,
      "inputs": [
        {
          "indexed": true,
          "internalType": "address",
          "name": "owner",
          "type": "address"
        },
        {
          "indexed": true,
          "internalType": "address",
          "name": "approved",
          "type": "address"
        },
        {
          "indexed": true,
          "internalType": "uint256",
          "name": "tokenId",
          "type": "uint256"
        }
      ],
      "name": "Approval",
      "type": "event"
    },
    {
      "anonymous": false,
      "inputs": [
        {
          "indexed": true,
          "internalType": "address",
          "name": "owner",
          "type": "address"
        },
        {
          "indexed": true,
          "internalType": "address",
          "name": "operator",
          "type": "address"
        },
        {
          "indexed": false,
          "internalType": "bool",
          "name": "approved",
          "type": "bool"
        }
      ],
      "name": "ApprovalForAll",
      "type": "event"
    },
    {
      "anonymous": false,
      "inputs": [
        {
          "indexed": true,
          "internalType": "address",
          "name": "owner",
          "type": "address"
        },
        {
          "indexed": true,
          "internalType": "uint256",
          "name": "tokenId",
          "type": "uint256"
        },
        {
          "indexed": false,
          "internalType": "string",
          "name": "tokenURI",
          "type": "string"
        }
      ],
      "name": "NFTMinted",
      "type": "event"
    },
    {
      "anonymous": false,
      "inputs": [
        {
          "indexed": true,
          "internalType": "address",
          "name": "from",
          "type": "address"
        },
        {
          "indexed": true,
          "internalType": "address",
          "name": "to",
          "type": "address"
        },
        {
          "indexed": true,
          "internalType": "uint256",
          "name": "tokenId",
          "type": "uint256"
        }
      ],
      "name": "NFTTransferred",
      "type": "event"
    },
    {
      "anonymous": false,
      "inputs": [
        {
          "indexed": true,
          "internalType": "uint256",
          "name": "tokenId",
          "type": "uint256"
        },
        {
          "indexed": false,
          "internalType": "string",
          "name": "newTokenURI",
          "type": "string"
        }
      ],
      "name": "TokenURIUpdated",
      "type": "event"
    },
    {
      "anonymous": false,
      "inputs": [
        {
          "indexed": true,
          "internalType": "address",
          "name": "from",
          "type": "address"
        },
        {
          "indexed": true,
          "internalType": "address",
          "name": "to",
          "type": "address"
        },
        {
          "indexed": true,
          "internalType": "uint256",
          "name": "tokenId",
          "type": "uint256"
        }
      ],
      "name": "Transfer",
      "type": "event"
    },
    {
      "inputs": [
        {
          "internalType": "address",
          "name": "to",
          "type": "address"
        },
        {
          "internalType": "uint256",
          "name": "tokenId",
          "type": "uint256"
        }
      ],
      "name": "approve",
      "outputs": [],
      "stateMutability": "nonpayable",
      "type": "function"
    },
    {
      "inputs": [
        {
          "internalType": "address",
          "name": "owner",
          "type": "address"
        }
      ],
      "name": "balanceOf",
      "outputs": [
        {
          "internalType": "uint256",
          "name": "",
          "type": "uint256"
        }
      ],
      "stateMutability": "view",
      "type": "function"
    },
    {
      "inputs": [
        {
          "internalType": "uint256",
          "name": "tokenId",
          "type": "uint256"
        }
      ],
      "name": "getApproved",
      "outputs": [
        {
          "internalType": "address",
          "name": "",
          "type": "address"
        }
      ],
      "stateMutability": "view",
      "type": "function"
    },
    {
      "inputs": [
        {
          "internalType": "uint256",
          "name": "tokenId",
          "type": "uint256"
        }
      ],
      "name": "getNFTURI",
      "outputs": [
        {
          "internalType": "string",
          "name": "",
          "type": "string"
        }
      ],
      "stateMutability": "view",
      "type": "function"
    },
    {
      "inputs": [
        {
          "internalType": "address",
          "name": "owner",
          "type": "address"
        },
        {
          "internalType": "address",
          "name": "operator",
          "type": "address"
        }
      ],
      "name": "isApprovedForAll",
      "outputs": [
        {
          "internalType": "bool",
          "name": "",
          "type": "bool"
        }
      ],
      "stateMutability": "view",
      "type": "function"
    },
    {
      "inputs": [
        {
          "internalType": "address",
          "name": "recipient",
          "type": "address"
        },
        {
          "internalType": "string",
          "name": "nftTokenURI",
          "type": "string"
        }
      ],
      "name": "mintNFT",
      "outputs": [
        {
          "internalType": "uint256",
          "name": "",
          "type": "uint256"
        }
      ],
      "stateMutability": "nonpayable",
      "type": "function"
    },
    {
      "inputs": [],
      "name": "name",
      "outputs": [
        {
          "internalType": "string",
          "name": "",
          "type": "string"
        }
      ],
      "stateMutability": "view",
      "type": "function"
    },
    {
      "inputs": [
        {
          "internalType": "uint256",
          "name": "tokenId",
          "type": "uint256"
        }
      ],
      "name": "ownerOf",
      "outputs": [
        {
          "internalType": "address",
          "name": "",
          "type": "address"
        }
      ],
      "stateMutability": "view",
      "type": "function"
    },
    {
      "inputs": [],
      "name": "promptDesc",
      "outputs": [
        {
          "internalType": "string",
          "name": "",
          "type": "string"
        }
      ],
      "stateMutability": "view",
      "type": "function"
    },
    {
      "inputs": [
        {
          "internalType": "address",
          "name": "from",
          "type": "address"
        },
        {
          "internalType": "address",
          "name": "to",
          "type": "address"
        },
        {
          "internalType": "uint256",
          "name": "tokenId",
          "type": "uint256"
        }
      ],
      "name": "safeTransferFrom",
      "outputs": [],
      "stateMutability": "nonpayable",
      "type": "function"
    },
    {
      "inputs": [
        {
          "internalType": "address",
          "name": "from",
          "type": "address"
        },
        {
          "internalType": "address",
          "name": "to",
          "type": "address"
        },
        {
          "internalType": "uint256",
          "name": "tokenId",
          "type": "uint256"
        },
        {
          "internalType": "bytes",
          "name": "data",
          "type": "bytes"
        }
      ],
      "name": "safeTransferFrom",
      "outputs": [],
      "stateMutability": "nonpayable",
      "type": "function"
    },
    {
      "inputs": [
        {
          "internalType": "address",
          "name": "operator",
          "type": "address"
        },
        {
          "internalType": "bool",
          "name": "approved",
          "type": "bool"
        }
      ],
      "name": "setApprovalForAll",
      "outputs": [],
      "stateMutability": "nonpayable",
      "type": "function"
    },
    {
      "inputs": [
        {
          "internalType": "bytes4",
          "name": "interfaceId",
          "type": "bytes4"
        }
      ],
      "name": "supportsInterface",
      "outputs": [
        {
          "internalType": "bool",
          "name": "",
          "type": "bool"
        }
      ],
      "stateMutability": "view",
      "type": "function"
    },
    {
      "inputs": [],
      "name": "symbol",
      "outputs": [
        {
          "internalType": "string",
          "name": "",
          "type": "string"
        }
      ],
      "stateMutability": "view",
      "type": "function"
    },
    {
      "inputs": [
        {
          "internalType": "uint256",
          "name": "index",
          "type": "uint256"
        }
      ],
      "name": "tokenByIndex",
      "outputs": [
        {
          "internalType": "uint256",
          "name": "",
          "type": "uint256"
        }
      ],
      "stateMutability": "view",
      "type": "function"
    },
    {
      "inputs": [
        {
          "internalType": "address",
          "name": "owner",
          "type": "address"
        },
        {
          "internalType": "uint256",
          "name": "index",
          "type": "uint256"
        }
      ],
      "name": "tokenOfOwnerByIndex",
      "outputs": [
        {
          "internalType": "uint256",
          "name": "",
          "type": "uint256"
        }
      ],
      "stateMutability": "view",
      "type": "function"
    },
    {
      "inputs": [
        {
          "internalType": "uint256",
          "name": "tokenId",
          "type": "uint256"
        }
      ],
      "name": "tokenURI",
      "outputs": [
        {
          "internalType": "string",
          "name": "",
          "type": "string"
        }
      ],
      "stateMutability": "view",
      "type": "function"
    },
    {
      "inputs": [],
      "name": "totalSupply",
      "outputs": [
        {
          "internalType": "uint256",
          "name": "",
          "type": "uint256"
        }
      ],
      "stateMutability": "view",
      "type": "function"
    },
    {
      "inputs": [
        {
          "internalType": "address",
          "name": "from",
          "type": "address"
        },
        {
          "internalType": "address",
          "name": "to",
          "type": "address"
        },
        {
          "internalType": "uint256",
          "name": "tokenId",
          "type": "uint256"
        }
      ],
      "name": "transferFrom",
      "outputs": [],
      "stateMutability": "nonpayable",
      "type": "function"
    },
    {
      "inputs": [
        {
          "internalType": "address",
          "name": "to",
          "type": "address"
        },
        {
          "internalType": "uint256",
          "name": "tokenId",
          "type": "uint256"
        }
      ],
      "name": "transferNFT",
      "outputs": [],
      "stateMutability": "nonpayable",
      "type": "function"
    }
  ],
  "bytecode": "0x60806040523480156200001157600080fd5b506040516200361b3803806200361b8339818101604052810190620000379190620001eb565b8181816000908051906020019062000051929190620000c9565b5080600190805190602001906200006a929190620000c9565b5050506000600c8190555082600d90805190602001906200008d929190620000c9565b5081600a9080519060200190620000a6929190620000c9565b5080600b9080519060200190620000bf929190620000c9565b50505050620003fc565b828054620000d79062000321565b90600052602060002090601f016020900481019282620000fb576000855562000147565b82601f106200011657805160ff191683800117855562000147565b8280016001018555821562000147579182015b828111156200014657825182559160200191906001019062000129565b5b5090506200015691906200015a565b5090565b5b80821115620001755760008160009055506001016200015b565b5090565b6000620001906200018a84620002b5565b6200028c565b905082815260208101848484011115620001a957600080fd5b620001b6848285620002eb565b509392505050565b600082601f830112620001d057600080fd5b8151620001e284826020860162000179565b91505092915050565b6000806000606084860312156200020157600080fd5b600084015167ffffffffffffffff8111156200021c57600080fd5b6200022a86828701620001be565b935050602084015167ffffffffffffffff8111156200024857600080fd5b6200025686828701620001be565b925050604084015167ffffffffffffffff8111156200027457600080fd5b6200028286828701620001be565b9150509250925092565b600062000298620002ab565b9050620002a6828262000357565b919050565b6000604051905090565b600067ffffffffffffffff821115620002d357620002d2620003bc565b5b620002de82620003eb565b9050602081019050919050565b60005b838110156200030b578082015181840152602081019050620002ee565b838111156200031b576000848401525b50505050565b600060028204905060018216806200033a57607f821691505b602082108114156200035157620003506200038d565b5b50919050565b6200036282620003eb565b810181811067ffffffffffffffff82111715620003845762000383620003bc565b5b80604052505050565b7f4e487b7100000000000000000000000000000000000000000000000000000000600052602260045260246000fd5b7f4e487b7100000000000000000000000000000000000000000000000000000000600052604160045260246000fd5b6000601f19601f8301169050919050565b61320f806200040c6000396000f3fe608060405234801561001057600080fd5b506004361061012b5760003560e01c80636352211e116100ad578063a22cb46511610071578063a22cb46514610368578063b88d4fde14610384578063c87b56dd146103a0578063e985e9c5146103d0578063eacabe14146104005761012b565b80636352211e146102b057806370a08231146102e057806394ab67fe1461031057806395d89b411461032c57806396dea7c51461034a5761012b565b806318160ddd116100f457806318160ddd146101fa57806323b872dd146102185780632f745c591461023457806342842e0e146102645780634f6ccce7146102805761012b565b8062621fda1461013057806301ffc9a71461016057806306fdde0314610190578063081812fc146101ae578063095ea7b3146101de575b600080fd5b61014a600480360381019061014591906123dc565b610430565b6040516101579190612779565b60405180910390f35b61017a6004803603810190610175919061238a565b610442565b604051610187919061275e565b60405180910390f35b6101986104bc565b6040516101a59190612779565b60405180910390f35b6101c860048036038101906101c391906123dc565b61054e565b6040516101d591906126f7565b60405180910390f35b6101f860048036038101906101f3919061234e565b610594565b005b6102026106ac565b60405161020f91906129bb565b60405180910390f35b610232600480360381019061022d91906121f4565b6106b9565b005b61024e6004803603810190610249919061234e565b610719565b60405161025b91906129bb565b60405180910390f35b61027e600480360381019061027991906121f4565b6107be565b005b61029a600480360381019061029591906123dc565b6107de565b6040516102a791906129bb565b60405180910390f35b6102ca60048036038101906102c591906123dc565b610875565b6040516102d791906126f7565b60405180910390f35b6102fa60048036038101906102f5919061218f565b6108fc565b60405161030791906129bb565b60405180910390f35b61032a6004803603810190610325919061234e565b6109b4565b005b610334610a7c565b6040516103419190612779565b60405180910390f35b610352610b0e565b60405161035f9190612779565b60405180910390f35b610382600480360381019061037d91906122be565b610b9c565b005b61039e60048036038101906103999190612243565b610bb2565b005b6103ba60048036038101906103b591906123dc565b610c14565b6040516103c79190612779565b60405180910390f35b6103ea60048036038101906103e591906121b8565b610d01565b6040516103f7919061275e565b60405180910390f35b61041a600480360381019061041591906122fa565b610d95565b60405161042791906129bb565b60405180910390f35b606061043b82610c14565b9050919050565b60007f780e9d63000000000000000000000000000000000000000000000000000000007bffffffffffffffffffffffffffffffffffffffffffffffffffffffff1916827bffffffffffffffffffffffffffffffffffffffffffffffffffffffff191614806104b557506104b482610e1d565b5b9050919050565b6060600080546104cb90612bd5565b80601f01602080910402602001604051908101604052809291908181526020018280546104f790612bd5565b80156105445780601f1061051957610100808354040283529160200191610544565b820191906000526020600020905b81548152906001019060200180831161052757829003601f168201915b5050505050905090565b600061055982610eff565b6004600083815260200190815260200160002060009054906101000a900473ffffffffffffffffffffffffffffffffffffffff169050919050565b600061059f82610875565b90508073ffffffffffffffffffffffffffffffffffffffff168373ffffffffffffffffffffffffffffffffffffffff161415610610576040517f08c379a00000000000000000000000000000000000000000000000000000000081526004016106079061291b565b60405180910390fd5b8073ffffffffffffffffffffffffffffffffffffffff1661062f610f4a565b73ffffffffffffffffffffffffffffffffffffffff16148061065e575061065d81610658610f4a565b610d01565b5b61069d576040517f08c379a00000000000000000000000000000000000000000000000000000000081526004016106949061293b565b60405180910390fd5b6106a78383610f52565b505050565b6000600880549050905090565b6106ca6106c4610f4a565b8261100b565b610709576040517f08c379a00000000000000000000000000000000000000000000000000000000081526004016107009061279b565b60405180910390fd5b6107148383836110a0565b505050565b6000610724836108fc565b8210610765576040517f08c379a000000000000000000000000000000000000000000000000000000000815260040161075c906127bb565b60405180910390fd5b600660008473ffffffffffffffffffffffffffffffffffffffff1673ffffffffffffffffffffffffffffffffffffffff168152602001908152602001600020600083815260200190815260200160002054905092915050565b6107d983838360405180602001604052806000815250610bb2565b505050565b60006107e86106ac565b8210610829576040517f08c379a00000000000000000000000000000000000000000000000000000000081526004016108209061297b565b60405180910390fd5b60088281548110610863577f4e487b7100000000000000000000000000000000000000000000000000000000600052603260045260246000fd5b90600052602060002001549050919050565b6000806108818361139a565b9050600073ffffffffffffffffffffffffffffffffffffffff168173ffffffffffffffffffffffffffffffffffffffff1614156108f3576040517f08c379a00000000000000000000000000000000000000000000000000000000081526004016108ea906128fb565b60405180910390fd5b80915050919050565b60008073ffffffffffffffffffffffffffffffffffffffff168273ffffffffffffffffffffffffffffffffffffffff16141561096d576040517f08c379a00000000000000000000000000000000000000000000000000000000081526004016109649061287b565b60405180910390fd5b600360008373ffffffffffffffffffffffffffffffffffffffff1673ffffffffffffffffffffffffffffffffffffffff168152602001908152602001600020549050919050565b6109c56109bf610f4a565b8261100b565b610a04576040517f08c379a00000000000000000000000000000000000000000000000000000000081526004016109fb9061295b565b60405180910390fd5b610a16610a0f610f4a565b83836110a0565b808273ffffffffffffffffffffffffffffffffffffffff16610a36610f4a565b73ffffffffffffffffffffffffffffffffffffffff167f209eb5082bc3bcbd509ae679a680b3bb2a11b77fea542a93e205020af76529fc60405160405180910390a45050565b606060018054610a8b90612bd5565b80601f0160208091040260200160405190810160405280929190818152602001828054610ab790612bd5565b8015610b045780601f10610ad957610100808354040283529160200191610b04565b820191906000526020600020905b815481529060010190602001808311610ae757829003601f168201915b5050505050905090565b600d8054610b1b90612bd5565b80601f0160208091040260200160405190810160405280929190818152602001828054610b4790612bd5565b8015610b945780601f10610b6957610100808354040283529160200191610b94565b820191906000526020600020905b815481529060010190602001808311610b7757829003601f168201915b505050505081565b610bae610ba7610f4a565b83836113d7565b5050565b610bc3610bbd610f4a565b8361100b565b610c02576040517f08c379a0000000000000000000000000000000000000000000000000000000008152600401610bf99061279b565b60405180910390fd5b610c0e84848484611544565b50505050565b6060610c1f826115a0565b610c5e576040517f08c379a0000000000000000000000000000000000000000000000000000000008152600401610c55906128db565b60405180910390fd5b600e60008381526020019081526020016000208054610c7c90612bd5565b80601f0160208091040260200160405190810160405280929190818152602001828054610ca890612bd5565b8015610cf55780601f10610cca57610100808354040283529160200191610cf5565b820191906000526020600020905b815481529060010190602001808311610cd857829003601f168201915b50505050509050919050565b6000600560008473ffffffffffffffffffffffffffffffffffffffff1673ffffffffffffffffffffffffffffffffffffffff16815260200190815260200160002060008373ffffffffffffffffffffffffffffffffffffffff1673ffffffffffffffffffffffffffffffffffffffff16815260200190815260200160002060009054906101000a900460ff16905092915050565b6000806001600c54610da79190612a95565b9050610db384826115e1565b610dbd81846117ff565b808473ffffffffffffffffffffffffffffffffffffffff167fd35bb95e09c04b219e35047ce7b7b300e3384264ef84a40456943dbc0fc17c1485604051610e049190612779565b60405180910390a380600c819055508091505092915050565b60007f80ac58cd000000000000000000000000000000000000000000000000000000007bffffffffffffffffffffffffffffffffffffffffffffffffffffffff1916827bffffffffffffffffffffffffffffffffffffffffffffffffffffffff19161480610ee857507f5b5e139f000000000000000000000000000000000000000000000000000000007bffffffffffffffffffffffffffffffffffffffffffffffffffffffff1916827bffffffffffffffffffffffffffffffffffffffffffffffffffffffff1916145b80610ef85750610ef7826118ab565b5b9050919050565b610f08816115a0565b610f47576040517f08c379a0000000000000000000000000000000000000000000000000000000008152600401610f3e906128fb565b60405180910390fd5b50565b600033905090565b816004600083815260200190815260200160002060006101000a81548173ffffffffffffffffffffffffffffffffffffffff021916908373ffffffffffffffffffffffffffffffffffffffff160217905550808273ffffffffffffffffffffffffffffffffffffffff16610fc583610875565b73ffffffffffffffffffffffffffffffffffffffff167f8c5be1e5ebec7d5bd14f71427d1e84f3dd0314c0f7b2291e5b200ac8c7c3b92560405160405180910390a45050565b60008061101783610875565b90508073ffffffffffffffffffffffffffffffffffffffff168473ffffffffffffffffffffffffffffffffffffffff16148061105957506110588185610d01565b5b8061109757508373ffffffffffffffffffffffffffffffffffffffff1661107f8461054e565b73ffffffffffffffffffffffffffffffffffffffff16145b91505092915050565b8273ffffffffffffffffffffffffffffffffffffffff166110c082610875565b73ffffffffffffffffffffffffffffffffffffffff1614611116576040517f08c379a000000000000000000000000000000000000000000000000000000000815260040161110d906127fb565b60405180910390fd5b600073ffffffffffffffffffffffffffffffffffffffff168273ffffffffffffffffffffffffffffffffffffffff161415611186576040517f08c379a000000000000000000000000000000000000000000000000000000000815260040161117d9061283b565b60405180910390fd5b6111938383836001611915565b8273ffffffffffffffffffffffffffffffffffffffff166111b382610875565b73ffffffffffffffffffffffffffffffffffffffff1614611209576040517f08c379a0000000000000000000000000000000000000000000000000000000008152600401611200906127fb565b60405180910390fd5b6004600082815260200190815260200160002060006101000a81549073ffffffffffffffffffffffffffffffffffffffff02191690556001600360008573ffffffffffffffffffffffffffffffffffffffff1673ffffffffffffffffffffffffffffffffffffffff168152602001908152602001600020600082825403925050819055506001600360008473ffffffffffffffffffffffffffffffffffffffff1673ffffffffffffffffffffffffffffffffffffffff16815260200190815260200160002060008282540192505081905550816002600083815260200190815260200160002060006101000a81548173ffffffffffffffffffffffffffffffffffffffff021916908373ffffffffffffffffffffffffffffffffffffffff160217905550808273ffffffffffffffffffffffffffffffffffffffff168473ffffffffffffffffffffffffffffffffffffffff167fddf252ad1be2c89b69c2b068fc378daa952ba7f163c4a11628f55a4df523b3ef60405160405180910390a46113958383836001611a75565b505050565b60006002600083815260200190815260200160002060009054906101000a900473ffffffffffffffffffffffffffffffffffffffff169050919050565b8173ffffffffffffffffffffffffffffffffffffffff168373ffffffffffffffffffffffffffffffffffffffff161415611446576040517f08c379a000000000000000000000000000000000000000000000000000000000815260040161143d9061285b565b60405180910390fd5b80600560008573ffffffffffffffffffffffffffffffffffffffff1673ffffffffffffffffffffffffffffffffffffffff16815260200190815260200160002060008473ffffffffffffffffffffffffffffffffffffffff1673ffffffffffffffffffffffffffffffffffffffff16815260200190815260200160002060006101000a81548160ff0219169083151502179055508173ffffffffffffffffffffffffffffffffffffffff168373ffffffffffffffffffffffffffffffffffffffff167f17307eab39ab6107e8899845ad3d59bd9653f200f220920489ca2b5937696c3183604051611537919061275e565b60405180910390a3505050565b61154f8484846110a0565b61155b84848484611a7b565b61159a576040517f08c379a0000000000000000000000000000000000000000000000000000000008152600401611591906127db565b60405180910390fd5b50505050565b60008073ffffffffffffffffffffffffffffffffffffffff166115c28361139a565b73ffffffffffffffffffffffffffffffffffffffff1614159050919050565b600073ffffffffffffffffffffffffffffffffffffffff168273ffffffffffffffffffffffffffffffffffffffff161415611651576040517f08c379a00000000000000000000000000000000000000000000000000000000081526004016116489061289b565b60405180910390fd5b61165a816115a0565b1561169a576040517f08c379a00000000000000000000000000000000000000000000000000000000081526004016116919061281b565b60405180910390fd5b6116a8600083836001611915565b6116b1816115a0565b156116f1576040517f08c379a00000000000000000000000000000000000000000000000000000000081526004016116e89061281b565b60405180910390fd5b6001600360008473ffffffffffffffffffffffffffffffffffffffff1673ffffffffffffffffffffffffffffffffffffffff16815260200190815260200160002060008282540192505081905550816002600083815260200190815260200160002060006101000a81548173ffffffffffffffffffffffffffffffffffffffff021916908373ffffffffffffffffffffffffffffffffffffffff160217905550808273ffffffffffffffffffffffffffffffffffffffff16600073ffffffffffffffffffffffffffffffffffffffff167fddf252ad1be2c89b69c2b068fc378daa952ba7f163c4a11628f55a4df523b3ef60405160405180910390a46117fb600083836001611a75565b5050565b611808826115a0565b611847576040517f08c379a000000000000000000000000000000000000000000000000000000000815260040161183e906128bb565b60405180910390fd5b80600e6000848152602001908152602001600020908051906020019061186e929190611fb3565b50817f931f495b9a8e5d8e61946ea5d61e021f636cfe213a801f97589c18c152e408bd8260405161189f9190612779565b60405180910390a25050565b60007f01ffc9a7000000000000000000000000000000000000000000000000000000007bffffffffffffffffffffffffffffffffffffffffffffffffffffffff1916827bffffffffffffffffffffffffffffffffffffffffffffffffffffffff1916149050919050565b61192184848484611c12565b6001811115611965576040517f08c379a000000000000000000000000000000000000000000000000000000000815260040161195c9061299b565b60405180910390fd5b6000829050600073ffffffffffffffffffffffffffffffffffffffff168573ffffffffffffffffffffffffffffffffffffffff1614156119ad576119a881611c18565b6119ec565b8373ffffffffffffffffffffffffffffffffffffffff168573ffffffffffffffffffffffffffffffffffffffff16146119eb576119ea8582611c61565b5b5b600073ffffffffffffffffffffffffffffffffffffffff168473ffffffffffffffffffffffffffffffffffffffff161415611a2f57611a2a81611dce565b611a6e565b8473ffffffffffffffffffffffffffffffffffffffff168473ffffffffffffffffffffffffffffffffffffffff1614611a6d57611a6c8482611f11565b5b5b5050505050565b50505050565b6000611a9c8473ffffffffffffffffffffffffffffffffffffffff16611f90565b15611c05578373ffffffffffffffffffffffffffffffffffffffff1663150b7a02611ac5610f4a565b8786866040518563ffffffff1660e01b8152600401611ae79493929190612712565b602060405180830381600087803b158015611b0157600080fd5b505af1925050508015611b3257506040513d601f19601f82011682018060405250810190611b2f91906123b3565b60015b611bb5573d8060008114611b62576040519150601f19603f3d011682016040523d82523d6000602084013e611b67565b606091505b50600081511415611bad576040517f08c379a0000000000000000000000000000000000000000000000000000000008152600401611ba4906127db565b60405180910390fd5b805181602001fd5b63150b7a0260e01b7bffffffffffffffffffffffffffffffffffffffffffffffffffffffff1916817bffffffffffffffffffffffffffffffffffffffffffffffffffffffff191614915050611c0a565b600190505b949350505050565b50505050565b6008805490506009600083815260200190815260200160002081905550600881908060018154018082558091505060019003906000526020600020016000909190919091505550565b60006001611c6e846108fc565b611c789190612aeb565b9050600060076000848152602001908152602001600020549050818114611d5d576000600660008673ffffffffffffffffffffffffffffffffffffffff1673ffffffffffffffffffffffffffffffffffffffff168152602001908152602001600020600084815260200190815260200160002054905080600660008773ffffffffffffffffffffffffffffffffffffffff1673ffffffffffffffffffffffffffffffffffffffff168152602001908152602001600020600084815260200190815260200160002081905550816007600083815260200190815260200160002081905550505b6007600084815260200190815260200160002060009055600660008573ffffffffffffffffffffffffffffffffffffffff1673ffffffffffffffffffffffffffffffffffffffff16815260200190815260200160002060008381526020019081526020016000206000905550505050565b60006001600880549050611de29190612aeb565b9050600060096000848152602001908152602001600020549050600060088381548110611e38577f4e487b7100000000000000000000000000000000000000000000000000000000600052603260045260246000fd5b906000526020600020015490508060088381548110611e80577f4e487b7100000000000000000000000000000000000000000000000000000000600052603260045260246000fd5b906000526020600020018190555081600960008381526020019081526020016000208190555060096000858152602001908152602001600020600090556008805480611ef5577f4e487b7100000000000000000000000000000000000000000000000000000000600052603160045260246000fd5b6001900381819060005260206000200160009055905550505050565b6000611f1c836108fc565b905081600660008573ffffffffffffffffffffffffffffffffffffffff1673ffffffffffffffffffffffffffffffffffffffff168152602001908152602001600020600083815260200190815260200160002081905550806007600084815260200190815260200160002081905550505050565b6000808273ffffffffffffffffffffffffffffffffffffffff163b119050919050565b828054611fbf90612bd5565b90600052602060002090601f016020900481019282611fe15760008555612028565b82601f10611ffa57805160ff1916838001178555612028565b82800160010185558215612028579182015b8281111561202757825182559160200191906001019061200c565b5b5090506120359190612039565b5090565b5b8082111561205257600081600090555060010161203a565b5090565b6000612069612064846129fb565b6129d6565b90508281526020810184848401111561208157600080fd5b61208c848285612b93565b509392505050565b60006120a76120a284612a2c565b6129d6565b9050828152602081018484840111156120bf57600080fd5b6120ca848285612b93565b509392505050565b6000813590506120e18161317d565b92915050565b6000813590506120f681613194565b92915050565b60008135905061210b816131ab565b92915050565b600081519050612120816131ab565b92915050565b600082601f83011261213757600080fd5b8135612147848260208601612056565b91505092915050565b600082601f83011261216157600080fd5b8135612171848260208601612094565b91505092915050565b600081359050612189816131c2565b92915050565b6000602082840312156121a157600080fd5b60006121af848285016120d2565b91505092915050565b600080604083850312156121cb57600080fd5b60006121d9858286016120d2565b92505060206121ea858286016120d2565b9150509250929050565b60008060006060848603121561220957600080fd5b6000612217868287016120d2565b9350506020612228868287016120d2565b92505060406122398682870161217a565b9150509250925092565b6000806000806080858703121561225957600080fd5b6000612267878288016120d2565b9450506020612278878288016120d2565b93505060406122898782880161217a565b925050606085013567ffffffffffffffff8111156122a657600080fd5b6122b287828801612126565b91505092959194509250565b600080604083850312156122d157600080fd5b60006122df858286016120d2565b92505060206122f0858286016120e7565b9150509250929050565b6000806040838503121561230d57600080fd5b600061231b858286016120d2565b925050602083013567ffffffffffffffff81111561233857600080fd5b61234485828601612150565b9150509250929050565b6000806040838503121561236157600080fd5b600061236f858286016120d2565b92505060206123808582860161217a565b9150509250929050565b60006020828403121561239c57600080fd5b60006123aa848285016120fc565b91505092915050565b6000602082840312156123c557600080fd5b60006123d384828501612111565b91505092915050565b6000602082840312156123ee57600080fd5b60006123fc8482850161217a565b91505092915050565b61240e81612b1f565b82525050565b61241d81612b31565b82525050565b600061242e82612a5d565b6124388185612a73565b9350612448818560208601612ba2565b61245181612cc5565b840191505092915050565b600061246782612a68565b6124718185612a84565b9350612481818560208601612ba2565b61248a81612cc5565b840191505092915050565b60006124a2602d83612a84565b91506124ad82612cd6565b604082019050919050565b60006124c5602b83612a84565b91506124d082612d25565b604082019050919050565b60006124e8603283612a84565b91506124f382612d74565b604082019050919050565b600061250b602583612a84565b915061251682612dc3565b604082019050919050565b600061252e601c83612a84565b915061253982612e12565b602082019050919050565b6000612551602483612a84565b915061255c82612e3b565b604082019050919050565b6000612574601983612a84565b915061257f82612e8a565b602082019050919050565b6000612597602983612a84565b91506125a282612eb3565b604082019050919050565b60006125ba602083612a84565b91506125c582612f02565b602082019050919050565b60006125dd602c83612a84565b91506125e882612f2b565b604082019050919050565b6000612600602f83612a84565b915061260b82612f7a565b604082019050919050565b6000612623601883612a84565b915061262e82612fc9565b602082019050919050565b6000612646602183612a84565b915061265182612ff2565b604082019050919050565b6000612669603d83612a84565b915061267482613041565b604082019050919050565b600061268c603183612a84565b915061269782613090565b604082019050919050565b60006126af602c83612a84565b91506126ba826130df565b604082019050919050565b60006126d2603583612a84565b91506126dd8261312e565b604082019050919050565b6126f181612b89565b82525050565b600060208201905061270c6000830184612405565b92915050565b60006080820190506127276000830187612405565b6127346020830186612405565b61274160408301856126e8565b81810360608301526127538184612423565b905095945050505050565b60006020820190506127736000830184612414565b92915050565b60006020820190508181036000830152612793818461245c565b905092915050565b600060208201905081810360008301526127b481612495565b9050919050565b600060208201905081810360008301526127d4816124b8565b9050919050565b600060208201905081810360008301526127f4816124db565b9050919050565b60006020820190508181036000830152612814816124fe565b9050919050565b6000602082019050818103600083015261283481612521565b9050919050565b6000602082019050818103600083015261285481612544565b9050919050565b6000602082019050818103600083015261287481612567565b9050919050565b600060208201905081810360008301526128948161258a565b9050919050565b600060208201905081810360008301526128b4816125ad565b9050919050565b600060208201905081810360008301526128d4816125d0565b9050919050565b600060208201905081810360008301526128f4816125f3565b9050919050565b6000602082019050818103600083015261291481612616565b9050919050565b6000602082019050818103600083015261293481612639565b9050919050565b600060208201905081810360008301526129548161265c565b9050919050565b600060208201905081810360008301526129748161267f565b9050919050565b60006020820190508181036000830152612994816126a2565b9050919050565b600060208201905081810360008301526129b4816126c5565b9050919050565b60006020820190506129d060008301846126e8565b92915050565b60006129e06129f1565b90506129ec8282612c07565b919050565b6000604051905090565b600067ffffffffffffffff821115612a1657612a15612c96565b5b612a1f82612cc5565b9050602081019050919050565b600067ffffffffffffffff821115612a4757612a46612c96565b5b612a5082612cc5565b9050602081019050919050565b600081519050919050565b600081519050919050565b600082825260208201905092915050565b600082825260208201905092915050565b6000612aa082612b89565b9150612aab83612b89565b9250827fffffffffffffffffffffffffffffffffffffffffffffffffffffffffffffffff03821115612ae057612adf612c38565b5b828201905092915050565b6000612af682612b89565b9150612b0183612b89565b925082821015612b1457612b13612c38565b5b828203905092915050565b6000612b2a82612b69565b9050919050565b60008115159050919050565b60007fffffffff0000000000000000000000000000000000000000000000000000000082169050919050565b600073ffffffffffffffffffffffffffffffffffffffff82169050919050565b6000819050919050565b82818337600083830152505050565b60005b83811015612bc0578082015181840152602081019050612ba5565b83811115612bcf576000848401525b50505050565b60006002820490506001821680612bed57607f821691505b60208210811415612c0157612c00612c67565b5b50919050565b612c1082612cc5565b810181811067ffffffffffffffff82111715612c2f57612c2e612c96565b5b80604052505050565b7f4e487b7100000000000000000000000000000000000000000000000000000000600052601160045260246000fd5b7f4e487b7100000000000000000000000000000000000000000000000000000000600052602260045260246000fd5b7f4e487b7100000000000000000000000000000000000000000000000000000000600052604160045260246000fd5b6000601f19601f8301169050919050565b7f4552433732313a2063616c6c6572206973206e6f7420746f6b656e206f776e6560008201527f72206f7220617070726f76656400000000000000000000000000000000000000602082015250565b7f455243373231456e756d657261626c653a206f776e657220696e646578206f7560008201527f74206f6620626f756e6473000000000000000000000000000000000000000000602082015250565b7f4552433732313a207472616e7366657220746f206e6f6e20455243373231526560008201527f63656976657220696d706c656d656e7465720000000000000000000000000000602082015250565b7f4552433732313a207472616e736665722066726f6d20696e636f72726563742060008201527f6f776e6572000000000000000000000000000000000000000000000000000000602082015250565b7f4552433732313a20746f6b656e20616c7265616479206d696e74656400000000600082015250565b7f4552433732313a207472616e7366657220746f20746865207a65726f2061646460008201527f7265737300000000000000000000000000000000000000000000000000000000602082015250565b7f4552433732313a20617070726f766520746f2063616c6c657200000000000000600082015250565b7f4552433732313a2061646472657373207a65726f206973206e6f74206120766160008201527f6c6964206f776e65720000000000000000000000000000000000000000000000602082015250565b7f4552433732313a206d696e7420746f20746865207a65726f2061646472657373600082015250565b7f4552433732314d657461646174613a2055524920736574206f66206e6f6e657860008201527f697374656e7420746f6b656e0000000000000000000000000000000000000000602082015250565b7f4552433732314d657461646174613a2055524920717565727920666f72206e6f60008201527f6e6578697374656e7420746f6b656e0000000000000000000000000000000000602082015250565b7f4552433732313a20696e76616c696420746f6b656e2049440000000000000000600082015250565b7f4552433732313a20617070726f76616c20746f2063757272656e74206f776e6560008201527f7200000000000000000000000000000000000000000000000000000000000000602082015250565b7f4552433732313a20617070726f76652063616c6c6572206973206e6f7420746f60008201527f6b656e206f776e6572206f7220617070726f76656420666f7220616c6c000000602082015250565b7f4552433732313a207472616e736665722063616c6c6572206973206e6f74206f60008201527f776e6572206e6f7220617070726f766564000000000000000000000000000000602082015250565b7f455243373231456e756d657261626c653a20676c6f62616c20696e646578206f60008201527f7574206f6620626f756e64730000000000000000000000000000000000000000602082015250565b7f455243373231456e756d657261626c653a20636f6e736563757469766520747260008201527f616e7366657273206e6f7420737570706f727465640000000000000000000000602082015250565b61318681612b1f565b811461319157600080fd5b50565b61319d81612b31565b81146131a857600080fd5b50565b6131b481612b3d565b81146131bf57600080fd5b50565b6131cb81612b89565b81146131d657600080fd5b5056fea26469706673582212202943581f08ea6aec9cbcc453ace20333dfc114534b7ef6cc614c31d230e11e1f64736f6c63430008010033",
  "linkReferences": {},
  "deployedLinkReferences": {}
}